{
  "_format": "hh-sol-artifact-1",
  "contractName": "Votacao",
  "sourceName": "contracts/Votacao.sol",
  "abi": [
    {
      "inputs": [
        {
          "internalType": "string",
          "name": "descricao_",
          "type": "string"
        },
        {
          "internalType": "uint256",
          "name": "prazo_",
          "type": "uint256"
        }
      ],
      "name": "criarVotacao",
      "outputs": [],
      "stateMutability": "nonpayable",
      "type": "function"
    },
    {
      "inputs": [],
      "name": "proximoId",
      "outputs": [
        {
          "internalType": "uint256",
          "name": "",
          "type": "uint256"
        }
      ],
      "stateMutability": "view",
      "type": "function"
    },
    {
      "inputs": [
        {
          "internalType": "uint256",
          "name": "id",
          "type": "uint256"
        }
      ],
      "name": "recuperaQuantidadeVotos",
      "outputs": [
        {
          "internalType": "uint256[2]",
          "name": "",
          "type": "uint256[2]"
        }
      ],
      "stateMutability": "view",
      "type": "function"
    },
    {
      "inputs": [
        {
          "internalType": "uint256",
          "name": "",
          "type": "uint256"
        }
      ],
      "name": "votacoes",
      "outputs": [
        {
          "internalType": "uint256",
          "name": "id",
          "type": "uint256"
        },
        {
          "internalType": "string",
          "name": "descricao",
          "type": "string"
        },
        {
          "internalType": "uint256",
          "name": "votosTotais",
          "type": "uint256"
        },
        {
          "internalType": "uint256",
          "name": "votosFavor",
          "type": "uint256"
        },
        {
          "internalType": "uint256",
          "name": "votosContra",
          "type": "uint256"
        },
        {
          "internalType": "uint256",
          "name": "prazo",
          "type": "uint256"
        },
        {
          "internalType": "bool",
          "name": "completa",
          "type": "bool"
        },
        {
          "internalType": "uint256",
          "name": "timestampInicio",
          "type": "uint256"
        }
      ],
      "stateMutability": "view",
      "type": "function"
    },
    {
      "inputs": [
        {
          "internalType": "uint256",
          "name": "id",
          "type": "uint256"
        },
        {
          "internalType": "bool",
          "name": "voto",
          "type": "bool"
        }
      ],
      "name": "votar",
      "outputs": [],
      "stateMutability": "nonpayable",
      "type": "function"
    }
  ],
  "bytecode": "0x60806040526000805534801561001457600080fd5b50610e80806100246000396000f3fe608060405234801561001057600080fd5b50600436106100575760003560e01c8063220af5871461005c57806322ace5bd1461009357806328962d4e146100af57806390b5ef50146100cb578063e8389def146100fb575b600080fd5b61007660048036038101906100719190610606565b610119565b60405161008a9897969594939291906106ed565b60405180910390f35b6100ad60048036038101906100a891906108a7565b610206565b005b6100c960048036038101906100c4919061092f565b61036f565b005b6100e560048036038101906100e09190610606565b610473565b6040516100f29190610a1a565b60405180910390f35b6101036104ed565b6040516101109190610a35565b60405180910390f35b6001818154811061012957600080fd5b906000526020600020906009020160009150905080600001549080600101805461015290610a7f565b80601f016020809104026020016040519081016040528092919081815260200182805461017e90610a7f565b80156101cb5780601f106101a0576101008083540402835291602001916101cb565b820191906000526020600020905b8154815290600101906020018083116101ae57829003601f168201915b5050505050908060020154908060030154908060040154908060050154908060060160009054906101000a900460ff16908060080154905088565b60016040518061012001604052806000548152602001848152602001600081526020016000815260200160008152602001838152602001600015158152602001600067ffffffffffffffff8111156102615761026061077c565b5b60405190808252806020026020018201604052801561028f5781602001602082028036833780820191505090505b5081526020014281525090806001815401808255809150506001900390600052602060002090600902016000909190919091506000820151816000015560208201518160010190816102e19190610c5c565b5060408201518160020155606082015181600301556080820151816004015560a0820151816005015560c08201518160060160006101000a81548160ff02191690831515021790555060e08201518160070190805190602001906103469291906104f3565b506101008201518160080155505060008081548092919061036690610d5d565b91905055505050565b60006001838154811061038557610384610da5565b5b9060005260206000209060090201905060005483106103a357600080fd5b60006201518082600501546103b89190610dd4565b90508082600801546103ca9190610e16565b4211156103ef5760018260060160006101000a81548160ff0219169083151502179055505b600015158260060160009054906101000a900460ff1615150361046d5760011515831515036104375781600301600081548092919061042d90610d5d565b9190505550610452565b81600401600081548092919061044c90610d5d565b91905055505b81600201600081548092919061046790610d5d565b91905055505b50505050565b61047b61057d565b60006001838154811061049157610490610da5565b5b90600052602060002090600902016003015490506000600184815481106104bb576104ba610da5565b5b906000526020600020906009020160040154905060405180604001604052808381526020018281525092505050919050565b60005481565b82805482825590600052602060002090810192821561056c579160200282015b8281111561056b5782518260006101000a81548173ffffffffffffffffffffffffffffffffffffffff021916908373ffffffffffffffffffffffffffffffffffffffff16021790555091602001919060010190610513565b5b509050610579919061059f565b5090565b6040518060400160405280600290602082028036833780820191505090505090565b5b808211156105b85760008160009055506001016105a0565b5090565b6000604051905090565b600080fd5b600080fd5b6000819050919050565b6105e3816105d0565b81146105ee57600080fd5b50565b600081359050610600816105da565b92915050565b60006020828403121561061c5761061b6105c6565b5b600061062a848285016105f1565b91505092915050565b61063c816105d0565b82525050565b600081519050919050565b600082825260208201905092915050565b60005b8381101561067c578082015181840152602081019050610661565b60008484015250505050565b6000601f19601f8301169050919050565b60006106a482610642565b6106ae818561064d565b93506106be81856020860161065e565b6106c781610688565b840191505092915050565b60008115159050919050565b6106e7816106d2565b82525050565b600061010082019050610703600083018b610633565b8181036020830152610715818a610699565b90506107246040830189610633565b6107316060830188610633565b61073e6080830187610633565b61074b60a0830186610633565b61075860c08301856106de565b61076560e0830184610633565b9998505050505050505050565b600080fd5b600080fd5b7f4e487b7100000000000000000000000000000000000000000000000000000000600052604160045260246000fd5b6107b482610688565b810181811067ffffffffffffffff821117156107d3576107d261077c565b5b80604052505050565b60006107e66105bc565b90506107f282826107ab565b919050565b600067ffffffffffffffff8211156108125761081161077c565b5b61081b82610688565b9050602081019050919050565b82818337600083830152505050565b600061084a610845846107f7565b6107dc565b90508281526020810184848401111561086657610865610777565b5b610871848285610828565b509392505050565b600082601f83011261088e5761088d610772565b5b813561089e848260208601610837565b91505092915050565b600080604083850312156108be576108bd6105c6565b5b600083013567ffffffffffffffff8111156108dc576108db6105cb565b5b6108e885828601610879565b92505060206108f9858286016105f1565b9150509250929050565b61090c816106d2565b811461091757600080fd5b50565b60008135905061092981610903565b92915050565b60008060408385031215610946576109456105c6565b5b6000610954858286016105f1565b92505060206109658582860161091a565b9150509250929050565b600060029050919050565b600081905092915050565b6000819050919050565b610998816105d0565b82525050565b60006109aa838361098f565b60208301905092915050565b6000602082019050919050565b6109cc8161096f565b6109d6818461097a565b92506109e182610985565b8060005b83811015610a125781516109f9878261099e565b9650610a04836109b6565b9250506001810190506109e5565b505050505050565b6000604082019050610a2f60008301846109c3565b92915050565b6000602082019050610a4a6000830184610633565b92915050565b7f4e487b7100000000000000000000000000000000000000000000000000000000600052602260045260246000fd5b60006002820490506001821680610a9757607f821691505b602082108103610aaa57610aa9610a50565b5b50919050565b60008190508160005260206000209050919050565b60006020601f8301049050919050565b600082821b905092915050565b600060088302610b127fffffffffffffffffffffffffffffffffffffffffffffffffffffffffffffffff82610ad5565b610b1c8683610ad5565b95508019841693508086168417925050509392505050565b6000819050919050565b6000610b59610b54610b4f846105d0565b610b34565b6105d0565b9050919050565b6000819050919050565b610b7383610b3e565b610b87610b7f82610b60565b848454610ae2565b825550505050565b600090565b610b9c610b8f565b610ba7818484610b6a565b505050565b5b81811015610bcb57610bc0600082610b94565b600181019050610bad565b5050565b601f821115610c1057610be181610ab0565b610bea84610ac5565b81016020851015610bf9578190505b610c0d610c0585610ac5565b830182610bac565b50505b505050565b600082821c905092915050565b6000610c3360001984600802610c15565b1980831691505092915050565b6000610c4c8383610c22565b9150826002028217905092915050565b610c6582610642565b67ffffffffffffffff811115610c7e57610c7d61077c565b5b610c888254610a7f565b610c93828285610bcf565b600060209050601f831160018114610cc65760008415610cb4578287015190505b610cbe8582610c40565b865550610d26565b601f198416610cd486610ab0565b60005b82811015610cfc57848901518255600182019150602085019450602081019050610cd7565b86831015610d195784890151610d15601f891682610c22565b8355505b6001600288020188555050505b505050505050565b7f4e487b7100000000000000000000000000000000000000000000000000000000600052601160045260246000fd5b6000610d68826105d0565b91507fffffffffffffffffffffffffffffffffffffffffffffffffffffffffffffffff8203610d9a57610d99610d2e565b5b600182019050919050565b7f4e487b7100000000000000000000000000000000000000000000000000000000600052603260045260246000fd5b6000610ddf826105d0565b9150610dea836105d0565b9250828202610df8816105d0565b91508282048414831517610e0f57610e0e610d2e565b5b5092915050565b6000610e21826105d0565b9150610e2c836105d0565b9250828201905080821115610e4457610e43610d2e565b5b9291505056fea26469706673582212203284867154cb513af05a1b6f1374b55879931a3abd739fb87eb4b5f7d25c53aa64736f6c63430008180033",
  "linkReferences": {},
  "deployedLinkReferences": {}
}